:03000000021AECF5
:0C1AEC00787FE4F6D8FD758188021B337A
:101E6800122150122008121FB4E4FF122049E57015
:101E780013E433F56A1221791220297887E670195C
:101E88007886E67014121DC5AB6CAD6DAF75121176
:101E9800371220E01213D480DF7887E6600A78864C
:0D1EA800E67005120DEC80D012166D80CB97
:1013D400E4FF122049E4F51B121DC5E4FF12216845
:1013E4007887E660030216607886E660030216607A
:1013F400750C02FBFD7F01121BFBE4F50C7B08FD61
:101404007F01121BFBE575C4540FF50C7B10E4FD42
:101414007F01121BFBE575540FF50C7B18E4FD7F6F
:1014240001121BFBE4F50B7B20FD7F01121C57E529
:101434006DC4540FF50C7B30E4FD7F01121BFBE5FA
:101444006D540FF50C7B38E4FD7F01121BFB750B0B
:1014540001E4FBFD7F02121C57E56CC4540FF50C2C
:101464007B10E4FD7F02121BFBE56C540FF50C7B33
:1014740018E4FD7F02121BFB750B027B20E4FD7F49
:1014840002121C57E577C4540FF50CE4FB7D027F70
:1014940001121BFBE577540FF50C7B087D027F01DD
:1014A400121BFB750C0A7B107D027F01121BFBE5EE
:1014B4006BC4540FF50C7B187D027F01121BFBE5F6
:1014C4006B540FF50C7B207D027F01121BFB750C06
:1014D4000A7B287D027F01121BFBE569C4540FF5CA
:1014E4000C7B307D027F01121BFBE569540FF50C68
:1014F4007B387D027F01121BFBE56A7005750C0BBE
:101504008004750C0CE4FB7D027F02121BFB750C3E
:101514000D7B087D027F02121BFB750B067B107D81
:10152400027F02121C57750B077B207D027F02127B
:101534001C57E5762407F50B7B307D027F02121CD5
:1015440057AF6D122105E564C3132401FDE433FC98
:10155400EF6D7001EC702DAF6C12210574232564BE
:10156400F8E6B5071FE56425E0F50BE4FB7D047F91
:1015740001121CB3E56425E004F50B7B107D047FA8
:1015840001121CB3E53CB40105750B0D805FE53C0D
:1015940075F00A84700FE53C75F00A84AFF0EF60D3
:1015A40004F50B8048E53C75F00A84FFBF010FE5A4
:1015B4003C75F00A84E5F07005750B0A802FE53C54
:1015C40075F00A84AFF0EF6401701FEF601CE53C16
:1015D40075F00A84F50BE4FB7D067F01121D0FE50F
:1015E4003C75F00A8485F00B8003750B0C7B107D31
:1015F400067F01121D0F750B017B207D067F0112F2
:101604001C57E53B75F00A846005E53BB40A05E424
:10161400F50B8021E53B75F00A84FFBF0105750BCE
:101624000A8012E53B75F00A84FFBF0205750B0BB7
:101634008003750B037B307D067F01121D0FE53B94
:1016440075F00A84AFF0EF6004F50B8003750B0AA4
:10165400E4FB7D067F02121D0F121EFF051BE51B16
:09166400C3948050030213DC2240
:10202900E569788266701608E6F56B6010E5770851
:1020390066700AE56A7888667003D2A522C2A5226D
:03000300021EB525
:101EB500C0E0C0F0C083C082C0D075D000C000C0F3
:101EC50001C002C003C004C005C006C00712000659
:101ED50020B20C7887E6F4F678857600121FB4D028
:101EE50007D006D005D004D003D002D001D000D051
:0A1EF500D0D082D083D0F0D0E032CC
:03001300021D6B60
:101D6B00C0E0C0F0C083C082C0D075D000C000C03E
:101D7B0001C002C003C004C005C006C007120006A4
:101D8B0020B31C7886E6FF600DE570541F7884F64F
:101D9B0018A66F18A66EEFF47886F678857600D0C5
:101DAB0007D006D005D004D003D002D001D000D08C
:0A1DBB00D0D082D083D0F0D0E03207
:07215B0080828486888A8CD3
:0C1F4900017820076E00561120040221D0
:101F7F00C29200C29000D29200E4FEEF139291EF52
:101F8F00C313FFD29000C290000EBE08EEE4FEED28
:101F9F00139291EDC313FDD29000C290000EBE08B4
:041FAF00EEC29200EC
:011FB300220B
:051E1900E4934401FF09
:101E1E00C29200C29000D29200E4FDEF139291EFB5
:101E2E00C313FFD29000C290000DBD08EE00E4FD7A
:101E3E00A291E433FFC43333335480FCEEC3134C0E
:101E4E00FED29000C290000DBD08E5C29200D29065
:091E5E0000C29100D29100AF0610
:011E67002258
:101FB400E4FD7F8E121F7FE4FCEC90215B93FF74A1
:101FC4006E2CF8E6FD121F7F0CBC07ED90215DE43A
:101FD40093FFE5704420FD121F7F7D807F8E021FDA
:011FE4007F7D
:101DC500902161121E198F74902160121E198F7354
:101DD50053730790215F121E198F7290215E121E98
:101DE500198F7190215D121E198F7053701F9021EC
:101DF5005C121E198F6F90215B121E198F6E856EF6
:101E050069856F6B85707785716C85726D85737665
:041E15008574752239
:101A2A00001F1C1F1E1F1E1F1F1E1F1E1F001F1D03
:101A3A001F1E1F1E1F1F1E1F1E1F001F3B5A7897A7
:101A4A00B5D4F301110130014E0C96454D4AB80D3B
:101A5A004A4C0DA54125AAB6056A497AADBD025D73
:101A6A0052092D475C95BA0A954E0B4A434B553796
:101A7A000AD54A955ABF04BA530A5B48652BBC0576
:101A8A002B500A9345474AB906AA4C0AD54124DA8B
:101A9A00B604B64A69573D0A4E510D26465E933A38
:101AAA000D534D05AA4336B537096D4BB4AEBF0485
:101ABA00AD530A4D486D25BC0D254F0D52445DAA04
:101ACA00380B5A4C056D4124ADB6049B4A7A4BBE7D
:101ADA000A4B510AA5465B52BA06D24E0ADA423579
:021AEA005B3768
:101F5500184A08000400020001000080004000202B
:101F6500001000080004000200010D3D0000000003
:091F750000000000000000000063
:10210500EFC4540FFEEF540FFFEE75F00AA42FFF36
:0121150022A7
:0F211600EFC4540FFEEF540FFFEEC454F02FFF31
:012125002297
:021878008F14CB
:10187A007E007C007D04120DA88E178F18E5147562
:10188A00F06484AFF0EF6006E51454036011EF7062
:10189A0016AF14FE7C017D90120D53ED4C7008E5D5
:1018AA0018151870021517E4F515F516E5156003F5
:1018BA0002197EE516B41800400302197E9018CE6C
:1018CA00F828287302191602191802191A0219227D
:1018DA0002192A02192C02192E02193602193E027D
:1018EA00194802194002194802194A02194C0219E8
:1018FA004E02195002195202195402195602195E5F
:10190A000219660219680219700219488028801C97
:10191A00751900751A03805C751900751A128054BE
:10192A0080148008751900751A04804875190075A5
:10193A001A1480408000751900751A058036802EA9
:10194A008024801A8020800C801C800875190075FC
:10195A001A088020751900751A17801880087519D9
:10196A0000751A16800E751900751A078006751902
:10197A0000751A15AC14E4120C9E7B477A03797829
:10198A00783E120B8EC004C005C006C007AC19AD64
:10199A001AE4120C99D003D002D001D000120A9D89
:1019AA00C004C005C006C007AC17AD18E4120C99F4
:1019BA00A804A905AA06AB07D007D006D005D0040B
:1019CA00120A99120CD274232516F8A6070516E5F1
:1019DA0016700205156418451560030218B6E51459
:1019EA00B41A021524E514B454020526E514B40801
:1019FA0002052AE514B41002052DE514B402020505
:101A0A002FE514B4590405340535E514B415021547
:0F1A1A0038E514B413021539E514B45202053A35
:011A2900229A
:061137008F088D098B0AF0
:10113D00E4F5131221058F08AF091221058F09AFB0
:10114D000A1221058F0AAF08122116EF24D0FFE4F1
:10115D003407AB07FAAF081221168F0BEB24B8FF3B
:10116D00EA34F8FE7C007D0A120D538D62EB24B833
:10117D00FFEA34F8FE7C007D0C120D538D63AF0831
:10118D00121878E4FBEBC3132401FFE433FEE509E9
:10119D00B50710E4B5060C74232BF8E6B50A048BDD
:1011AD006480040BBB18DEBB17037564FF850B66EB
:1011BD00E50B75F003A42455F582E4341AF583E4A8
:1011CD0093FF5460C4135407F567EF541FF568E59A
:1011DD000B75F06484AFF0EF6006E50B54036011FE
:1011ED00EF7013AF0BFE7C017D90120D53ED4C7023
:1011FD00057513018003E4F513E50B75F003A424C5
:10120D0053F582E4341AF583E493FF54F0C4540F7C
:10121D00FDE4F521F522EF540FFEE50B75F003A467
:10122D002454F582E4341AF583E493FBEEF521EBB7
:10123D00F522E50B75F003A42453F582E4341AF579
:10124D0083E4935480C4131313540124FF9200E4D8
:10125D00FBEB25E0244AF8E6FE08E6FFE5215EFEFD
:10126D00E5225F4E6008743D2BF876018006743DD3
:10127D002BF8E4F60BBB0CD9A200E433F549E56776
:10128D00B40107E56814F50E8006E568241EF50E19
:10129D00E509C3940AE509500F901A4393FFE50A37
:1012AD00FBEF2BFFE433801525E02439F582E43480
:1012BD001AF583740193250AFFE4933400CF24FFBC
:1012CD00F510EF34FFF50FE509D39402400EE50854
:1012DD00540370080510E5107002050FAF0E7E0067
:1012ED00C3E5109FE50F9E4064E5109FF510E50FD7
:1012FD009EF50F750901750D01743C250DF8E6F588
:10130D0012E4F511E512703C8035AF0C7E00C3E59B
:10131D00109FE50F9E4032E5109FF510E50F9EF5ED
:10132D000F050DE509B5050B6311FFE511700605F8
:10133D000980020509743D250DF8E6F51270057555
:10134D000C1D80C6750C1E80C1E51080731508E557
:10135D000875F003A42453F582E4341AF583E4935D
:10136D0054F0C4540FFDC3E50E9510F50E75090C20
:10137D00200005750D0C8003750D0DE4F511743C01
:10138D00250DF8E6F512702E8027E50ED3950C404D
:10139D002AE50E950CF50E150DE51170021509E5F2
:1013AD0009B505036311FF743C250DF8E6F51270C0
:1013BD0005750C1D80D4750C1E80CFC3E50C950EE4
:0613CD0004F53B85093C1C
:0113D30022F7
:10001600002018C744444444FC44444444040000BB
:100026000404040704040404FF0404040404040090
:10003600000000FE2222222222222222FE000000AE
:100046008040300F02020202020242827F0000005C
:10005600000000FE82828282828282FE0000000010
:10006600000000FF40404040404040FF00000000CC
:1000760000FC848484FC001010101010FF10100087
:10008600003F1010103F0000010640807F00000076
:10009600804020908886808080838C10204080005D
:1000A600008040201807004080403F00000000000C
:1000B6002424A4FE232200C03800FF00081060009C
:1000C600080601FF01068180404027100C0300004E
:1000D600000000BE2A2A2AEA2A2A2A3E0000000038
:1000E600004442494949497F49494949414000003C
:1000F6000004FF242424FF0400FE222222FE000026
:1001060088482F090919AF48300F0242827F000044
:100116008080808080808080808080808080800059
:1001260000000000000000000000000000000000C9
:100136000000080808080808080808080800000061
:1001460010101010101010101010101010101000B9
:1001560000048484848484848484848484040000E5
:1001660020202020202020202020202020202000A9
:1001760000FC040404FC040404FC040404FC000065
:10018600007F28242320202020212222227F0000F5
:100196000002424242C27E42424242C20202000083
:1001A60040404040784740404040407F404040000B
:1001B60020202020202021222C202020202020004A
:1001C600004020100C03000000010204186000002B
:1001D600808080808040FF4040402020202000001A
:1001E6000000000000003F404040404040780000D2
:1001F60000E010080810E000000F102020100F008B
:1002060000001010F8000000000020203F20200011
:10021600007008080808F000003028242221300069
:1002260000300808088870000018202121221C00D0
:100236000000804030F8000000060524243F2424F6
:1002460000F88888880808000019202020110E0070
:1002560000E0108888900000000F112020201F0069
:1002660000180808886818000000003E0100000019
:100276000070880808887000001C222121221C00BA
:1002860000F008080810E0000001122222110F00F9
:10029600000000C0C0000000000000303000000078
:1002A6000000C038E0000000203C2302022738206E
:1002B60008F808080808F000203F210101010000A5
:1002C60008F8F800F8F80800203F013E013F20003A
:1002D600080889EA1888000404FC040404FC0000E9
:1002E600020100FF0186402018074080403F0000C1
:1002F6008080808080808080808080808080800078
:1003060000000000000000000000000000000000E7
:10031600000008080808080808080808080000007F
:1003260010101010101010101010101010101000D7
:100336000004848484848484848484848404000003
:1003460020202020202020202020202020202000C7
:1003560000FC040404FC040404FC040404FC000083
:10036600007F28242320202020212222227F000013
:100376000002424242C27E42424242C202020000A1
:1003860040404040784740404040407F4040400029
:1003960020202020202021222C2020202020200068
:1003A600004020100C030000000102041860000049
:1003B600808080808040FF40404020202020000038
:1003C6000000000000003F404040404040780000F0
:1003D6000000000000FC0000007E8000000000001D
:1003E60000806018070000000000030C3040800009
:1003F6000010101010FF10101010F0000000000088
:10040600804020180700000000003F404040780070
:1004160040404040404040FF404040404040400057
:1004260000000000000000FF0000000000000000C7
:1004360020202020FF202020202020FF2020200018
:1004460000000000FF404040404040FF0000000028
:1004560000FE2222FE4048487F4848487F48480020
:10046600807F0282FF0000FF4949494949FF000099
:10047600000202C2020202FE828282828202000020
:100486004040407F4040407F404040404040400028
:10049600000000E0000000FF000000204080000097
:1004A600080403000040807F0000000000010E00E9
:1004B600100C445454FC555654FC545444140C002B
:1004C600111109050321254549910305091111005B
:1004D60020202020202020FF202020202020200057
:1004E60080804020100C0300030C10204080800008
:1004F600100C445454FC555654FC545444140C00EB
:10050600111109050321254549910305091111001A
:100516000010109010101116101010D010100000BE
:1005260040404040435C4040504C434040404000C7
:1005360040445454D454745F5454D45454444000E6
:1005460004040201FE9292929292FE0102040400B9
:1005560002E22222222222FE2222222222E202007B
:1005660000FF00000912007F00091240807F000092
:1005760000202020A06000FF6080402018000000BE
:10058600201008060140807F0001020408101000B8
:1005960000E000FF102004E42425262424E40400BF
:1005A600010000FF0020100D41817F010509300088
:1005B60024A424FF140084543F44047C80E00000FB
:1005C6000040C15E5253527F5252525E60C10000DB
:1005D60040445454D454745F5454D4545444400046
:1005E60004040201FE9292929292FE010204040019
:1005F600804020908886808080838C1020408000F8
:10060600008040201807004080403F0000000000A6
:100616001060028C00445454547F54545444400097
:1006260004047E010000FF15151555957F00000096
:1006360000FC444444FC0000FE22222222FE00006C
:10064600000F0404048F40300F020242827F000034
:10065600001088844320100C10204182840800007A
:10066600010100FE42424242424242FE00010100B6
:1006760002E22222222222FE2222222222E202005A
:1006860000FF00000912007F00091240807F000071
:100696000010109010101116101010D0101000003D
:1006A60040404040435C4040504C43404040400046
:1006B600000101FD55555755555555FD01010000E1
:1006C600809088454F55252525554D4580808000CD
:1006D600000000E0000000FF000000204080000055
:1006E600080403000040807F0000000000010E00A7
:1006F6001060028C0024242FE42424E42F242400F8
:1007060004047E0100FF11090719090749917F00BA
:10071600848484849F84A4C484849F848484840081
:10072600000000007F404040404040404040000004
:100736002424A4FE232200F01010FF1010F0000065
:10074600080601FF010600070202FF020207000079
:10075600000101FD55555755555555FD0101000040
:10076600809088454F55252525554D45808080002C
:1007760000024262524A464242425262C2020000AD
:10078600404044444444447F44444444444040003C
:10079600000000E0000000FF000000204080000094
:1007A600080403000040807F0000000000010E00E6
:1007B6000000005F5555F5555555955F0000000042
:1007C60011110909FD555757555555FD01010100F0
:1007D60020202020202020FF202020202020200054
:1007E60080804020100C0300030C10204080800005
:1007F6000000005F5555F5555555955F0000000002
:1008060011110909FD555757555555FD01010100AF
:100816000010109010101116101010D010100000BB
:1008260040404040435C4040504C434040404000C4
:100836002424A4FE2322807000FF008040300000A4
:10084600080601FF018640300E0106182040800090
:100856000080609F0808F80000FF1020408000001C
:10086600814020130C132020405F4040404140004F
:100876000000005F5555F5555555955F0000000081
:1008860011110909FD555757555555FD010101002F
:100896000000F808080C0A0908080808F800000013
:1008A6000000FF414141414141414141FF000000FB
:1008B600100C05555555057F05D5555505140C00E5
:1008C60080F7857D5557000AE9ABA5A5EB0808001A
:1008D6002424A4FE2322807000FF00804030000004
:1008E600080601FF018640300E01061820408000F0
:1008F600804020908886808080838C1020408000F5
:10090600008040201807004080403F0000000000A3
:10091600100C445454FC555654FC545444140C00C6
:1009260011110905032125454991030509111100F6
:10093600100C05555555057F05D5555505140C0064
:1009460080F7857D5557000AE9ABA5A5EB08080099
:10095600100C05555555057F0555555505140C00C4
:1009660020120A06FF0A1200FF55555555FF0000D2
:1009760000FE0222DA8690485724A4544C84800054
:1009860000FF0810080718121212FF1212121000A8
:100996000010109010101116101010D0101000003A
:1009A60040404040435C4040504C43404040400043
:1009B6000020100894A7444444A4940C00000000AE
:1009C6000202010120242444488810010102020089
:1009D600000000E0000000FF000000204080000052
:1009E600080403000040807F0000000000010E00A4
:1009F600100C05555555057F0555555505140C0024
:100A0600000041494949494949494949FF0000000F
:100A160020202020202020FF202020202020200011
:100A260080804020100C0300030C102040808000C2
:100A3600100C05555555057F0555555505140C00E3
:100A4600000041494949494949494949FF000000CF
:100A56000020100894A7444444A4940C000000000D
:100A660002020101202424444888100101020200E8
:100A760000024262524A464242425262C2020000AA
:100A8600404044444444447F444444444440400039
:10206800D3EF9400EE940040147D6E7C00ED1D705B
:0D207800011CED4C70F7EF1F70E61E80E3B9
:012085002238
:10208600C2A2D2A1E4F580D2A000AF80C2A05307BD
:0A20960080EF7003D38001C350EA0D
:0120A000221D
:1020F300AE07122086C2A2C2A18E80D2A00000C267
:02210300A02218
:062162004307B80220F360
:062168004307C00220F352
:0C20B800AC03121FE5AF05122162AF045B
:0920C40053073F4307400220F3DB
:06216E0043073E0220F3CE
:0520A100F583E493FF4C
:1020A600AE07122086D2A2C2A18E80D2A00000C2A4
:0220B600A02266
:101FE500EF14600B14601124027017C2A3800BC29A
:101FF500A3000000D2A48007D2A3000000C2A40061
:03200500000022B6
:10204900121FE5E4FDAF05122162E4FF1220C4E48A
:0E205900FCE4FF1220A60CBC40F70DBD08E70A
:012067002256
:10200800122086E4FF121FE512216EE4FF121FE57D
:102018000F12216EE4FF121FE5122049E4FF02218E
:01202800684F
:101BFB001220B8E4FBFA75F010E50CA42BF582E586
:101C0B00F03AF583E58224F6F582E5833401122060
:101C1B00A10BBB00010AEB64084A70DAED04FF125A
:101C2B0020BFE4FAFB75F010E50CA42BF582E5F070
:101C3B003AF583E58224FEF582E58334011220A177
:0B1C4B000BBB00010AEB64084A70DAD2
:011C5600226B
:101C57001220B8E4FBFA75F020E50BA42BF582E51A
:101C6700F03AF583E5822416F582E58334001220E5
:101C7700A10BBB00010AEB64104A70DAED04FF12F6
:101C870020BFE4FAFB75F020E50BA42BF582E5F005
:101C97003AF583E5822426F582E58334001220A1F4
:0B1CA7000BBB00010AEB64104A70DA6E
:011CB200220F
:101CB3001220B8E4FBFA75F020E50BA42BF582E5BE
:101CC300F03AF583E5822496F582E5833404122005
:101CD300A10BBB00010AEB64104A70DAED04FF129A
:101CE30020BFE4FAFB75F020E50BA42BF582E5F0A9
:101CF3003AF583E58224A6F582E58334041220A114
:0B1D03000BBB00010AEB64104A70DA11
:011D0E0022B2
:101D0F001220B8E4FBFA75F020E50BA42BF582E561
:101D1F00F03AF583E58224D6F582E583340212206A
:101D2F00A10BBB00010AEB64104A70DAED04FF123D
:101D3F0020BFE4FAFB75F020E50BA42BF582E5F04C
:101D4F003AF583E58224E6F582E58334021220A179
:0B1D5F000BBB00010AEB64104A70DAB5
:011D6A002256
:0F212600EFC4540F75F00AA4FEEF540F2EFF22E2
:1020CD00EF75F00A84C454F0FEEF75F00A84EE2526
:0320DD00F0FF22EF
:0B215000D288D28AD2A8D2AAD2AF2235
:0C0006007F017E267D82DDFEDEFADFF643
:0100120022CB
:100DEC00E4F50820B02512000620B00B788506E645
:100DFC00C394074002E4F6E508C39432500A20B0CD
:100E0C0007120006050880EFE4F50830B103020F65
:100E1C007A12000630B103020F7A7885E6FF246E51
:100E2C00F806EF14603114604814606114607C247F
:100E3C00FE7003020ED524066003020EF4E56EC4A8
:100E4C00540FF50C7B307D027F01121BFBE56E54B9
:100E5C000FF50C7B388032E56FC4540FF50C7B1802
:100E6C007D027F01121BFBE56F540FF50C7B20807C
:100E7C0018E570C4540FF50CE4FB7D027F01121BC6
:100E8C00FBE570540FF50C7B087D028038E571C4CE
:100E9C00540FF50C7B10E4FD7F02121BFBE5715423
:100EAC000FF50C7B18E4FD7F02803AE572C4540FF9
:100EBC00F50C7B30E4FD7F01121BFBE572540FF542
:100ECC000C7B38E4FD7F01801CE574C4540FF50CD9
:100EDC007B10E4FD7F01121BFBE574540FF50C7BBA
:100EEC0018E4FD7F01121BFB7885E6246EF8E654AE
:100EFC000FD394094004740626F67885E6FF246E19
:100F0C00F8E6C394604007EF94025002E4F678854B
:100F1C00E6FF246EF8E6C394244006EFB40202E424
:100F2C00F67885E6FF246EF8E6C394324006EFB4FB
:100F3C000302E4F67885E6FF246EF8E6C3941340CA
:100F4C0006EFB40402E4F67885E6FF246EF8E6C3F7
:100F5C0094074006EFB405027601E508C3943250BD
:100F6C000A20B107120006050880EFE4F508309658
:100F7C00030210F71200063096030210F77885E68C
:100F8C00246EF8E6FF1221267885E6FE246EF8A67C
:100F9C0007746E2EF816746E2EF8E6FF1220CD78BC
:100FAC0085E6FE246EF8A607EE1460311460481432
:100FBC00606114607C24FE700302105B24066003E5
:100FCC0002107AE56EC4540FF50C7B307D027F0164
:100FDC00121BFBE56E540FF50C7B388032E56FC4A9
:100FEC00540FF50C7B187D027F01121BFBE56F542F
:100FFC000FF50C7B208018E570C4540FF50CE4FB46
:10100C007D027F01121BFBE570540FF50C7B087DF4
:10101C00028038E571C4540FF50C7B10E4FD7F029F
:10102C00121BFBE571540FF50C7B18E4FD7F02805D
:10103C003AE572C4540FF50C7B30E4FD7F01121BB2
:10104C00FBE572540FF50C7B38E4FD7F01801CE549
:10105C0074C4540FF50C7B10E4FD7F01121BFBE5EF
:10106C0074540FF50C7B18E4FD7F01121BFB788583
:10107C00E6FFB4030CE573B4010575730780021524
:10108C0073746E2FF8E6700F7885E6FFC3940250E8
:10109C0006746E2FF876607885E6FF246EF8E6709D
:1010AC0006EFB4020276127885E6FF246EF8E6703D
:1010BC0006EFB4030276317885E6FF246EF8E6700D
:1010CC0006EFB4040276127885E6FF246EF8E6701B
:1010DC0006EFB405027607E508C39432500A209651
:1010EC0007120006050880EFE4F50820973C120073
:1010FC0006209721E56AB40105E4F56A8003756A58
:10110C0001E508C39432500A209607120006050820
:10111C0080EFE4F508E56A7005750C0B8004750C1E
:0A112C000CE4FB7D027F02121BFBA6
:011136002296
:10166D00E4F50820B02512000620B00B788506E6BB
:10167D00C394034002E4F6E508C39432500A20B047
:10168D0007120006050880EFE4F50830B1030217D4
:10169D006012000630B1030217607885E6FF2482E0
:1016AD00F806EF14602314603C240270597882E62A
:1016BD00C4540FF50C7B307D027F01121BFB788229
:1016CD00E6540FF50C7B3880367883E6C4540FF55D
:1016DD000C7B187D027F01121BFB7883E6540FF5FE
:1016ED000C7B20801A7884E6C4540FF50CE4FB7D46
:1016FD00027F01121BFB7884E6540FF50C7B087DED
:10170D00027F01121BFB7885E62482F8E6540FD385
:10171D0094094004740626F67885E6FF2482F8E6DF
:10172D00C394604007EF94025002E4F67885E6FF1B
:10173D002482F8E6C394244006EFB40202E4F6E5F1
:10174D0008C39432500A20B107120006050880EF35
:10175D00E4F50830960302183412000630960302A1
:10176D0018347885E62482F8E6FF1221267885E67E
:10177D00FE2482F8A60774822EF81674822EF8E6DF
:10178D00FF1220CD7885E6FE2482F8A607EE1460C0
:10179D002314603C240270597882E6C4540FF50C72
:1017AD007B307D027F01121BFB7882E6540FF50C16
:1017BD007B3880367883E6C4540FF50C7B187D0298
:1017CD007F01121BFB7883E6540FF50C7B20801AEA
:1017DD007884E6C4540FF50CE4FB7D027F01121BE7
:1017ED00FB7884E6540FF50C7B087D027F01121BFC
:1017FD00FB7885E6FF2482F8E67008EFC39402506B
:10180D000276607885E6FF2482F8E67006EFB40272
:10181D00027612E508C39432500A2096071200068C
:10182D00050880EFE4F5082097407888A66A120035
:10183D0006209720E6B40104E4F68004788876014A
:10184D00E508C39432500A20960712000605088059
:10185D00EFE4F5087888E67005750C0B8004750CBF
:0A186D000CE4FB7D027F02121BFB5E
:01187700224E
:101B7800E4F509C293122143D293122174122174FD
:101B88001221741221743093037F00223093FD20B8
:101B980093FDE509C39405503C750A80E4F50830C7
:101BA80093FD122174122174122174122174747B12
:101BB8002509F8E50A209305F456F6800246F6E56D
:101BC8000AC313F50A2093FD0508E508C3940840E5
:101BD800CE050980BD787DE6FF787BE62FFF7E0085
:101BE8007879EEF608EFF6787FE6B507037F0122ED
:021BF8007F006C
:011BFA0022C8
:042174007F02DFFE09
:012178002244
:0C2143007F017EDE7D28DDFEDEFADFF687
:01214F00226D
:0D2135007F0D7EF77D8EDDFEDEFADFF60009
:01214200227A
:101EFF007881E675F00A84F50C7B207D067F02124F
:101F0F001BFB7881E675F00A8485F00C7B287D0633
:101F1F007F02121BFB7880E675F00A84F50C7B308C
:101F2F007D067F02121BFB7880E675F00A8485F030
:0A1F3F000C7B387D067F02021BFBBD
:032179000221350B
:1020E000121B78BF010C787DE67881F6787BE67864
:0220F00080F678
:0120F20022CB
:100A9600020D3EE86480F8E933E83360110460F043
:100AA600ED33EC337009E8FCE9FDEAFEEBFF2204C6
:100AB60060DED3EB9FEA9EE99DE8C2E78CF0C2F7C1
:100AC60095F0400CE8CCF8E9CDF9EACEFAEBCFFB8D
:100AD600120D0985D0F05804700320D5B3E80470D0
:100AE600075002B2D5020D4892D5EC0460F7E4CC6B
:100AF600C0E0C398F8603B94186008400DD0E0FB56
:100B0600020D20E4FBFAC9FC8028E830E406E4C9BB
:100B1600FBE4CAFCE830E305E4C9CACBFCE85407A9
:100B26006010F8C3E913F9EA13FAEB13FBEC13FCB4
:100B3600D8F130F52FC3E49CFCEF9BFFEE9AFEED57
:100B460099FDD0E0FBEF4E4D4C701222DB03020DF7
:100B560045EC2CFCEF33FFEE33FEED33FDED30E7D5
:100B6600EB020D20EF2BFFEE3AFEED39FDD0E0FB58
:100B760050130BBB0003020D48ED13FDEE13FEEF01
:080B860013FFEC13FC020D202B
:100B8E00EC4D6011E8497017ED33EC3304600DE461
:100B9E00FCFFFEFD22E933E8330470F8020D3E122D
:100BAE000D0958046009E4CC24815006285009022E
:100BBE000D48284003020D45C0E0EB4A7044B98051
:100BCE0006D0E0FB020D34EF4E701CBD8008EBFF2B
:100BDE00EAFEE9FD80EBE98DF0A4FEE5F0020C776C
:100BEE00E9CDF9EAFEEBFFEF89F0A4FCE5F0CE8942
:100BFE00F0A42EFFE435F0CD89F0A42DFEE435F0FF
:100C0E008067EF4E7005BD80D780C3EF8BF0A4AC2C
:100C1E00F0EE8BF0A42CFCE435F0F8EF8AF0A42C67
:100C2E00E5F038FCE433CB8DF0A42CFCE5F03BF87A
:100C3E00EE8AF0A42CFCE5F038F8E433CF89F0A46A
:100C4E002CFCE5F038CF3400CE89F0A42FFFE5F070
:100C5E003EFEE433C98DF0A42EFEE5F039CD8AF0C8
:100C6E00A42FFFE5F03EFEE43DFD33D0E0FB500740
:100C7E000BBB000F020D48EC2CFCEF33FFEE33FEE6
:060C8E00ED33FD020D2014
:100C940075F020800E75F010800575F0087D007EDB
:100CA400007F003392D530D503120DDEEC334010B3
:100CB400EF33FFEE33FEED33FDEC33FCD5F0ED22E4
:0E0CC400E5F0247EA2D513CC92E7CDCEFF2220
:100CD200EDD2E7CD33EC3392D524814006E4FFFE1A
:100CE200FDFC22FCE4CFCECDCC24E0501174FF8079
:100CF200EDC3CC13CCCD13CDCE13CECF13CF047016
:070D0200F030D5DE020DDE2A
:100D0900E9D2E7C933E833F892D5EDD2E7CD33EC30
:070D190033FC5002B2D522A9
:100D2000EC30E7100FBF000C0EBE00080DBD000434
:100D30000BEB6014A2D5EB13FCED92E7FD2274FFE0
:100D4000FCFDFEFF22E480F8A2D574FF13FC7D8039
:030D5000E480EF4D
:101AF800021E68E493A3F8E493A34003F68001F27E
:101B080008DFF48029E493A3F85407240CC8C333EE
:101B1800C4540F4420C8834004F456800146F6DFBD
:101B2800E4800B0102040810204080901F49E47EE5
:101B3800019360BCA3FF543F30E509541FFEE493B2
:101B4800A360010ECF54C025E060A840B8E493A379
:101B5800FAE493A3F8E493A3C8C582C8CAC583CAA4
:101B6800F0A3C8C582C8CAC583CADFE9DEE780BE5C
:011F7E000062
:100D5300BC000BBE0029EF8DF084FFADF022E4CC84
:100D6300F875F008EF2FFFEE33FEEC33FCEE9DEC4D
:100D7300984005FCEE9DFE0FD5F0E9E4CEFD22ED93
:100D8300F8F5F0EE8420D21CFEADF075F008EF2FDD
:100D9300FFED33FD4007985006D5F0F222C398FDCE
:050DA3000FD5F0EA226B
:100DA800C2D5EC30E709B2D5E4C39DFDE49CFCEE66
:100DB80030E715B2D5E4C39FFFE49EFE120D53C37E
:100DC800E49DFDE49CFC8003120D5330D507C3E479
:060DD8009FFFE49EFE22D5
:0E0DDE00C3E49FFFE49EFEE49DFDE49CFC2226
:00000001FF
